{
  "_format": "hh-sol-artifact-1",
  "contractName": "TemporaryWallet",
  "sourceName": "contracts/TemporaryWallet.sol",
  "abi": [
    {
      "inputs": [],
      "stateMutability": "nonpayable",
      "type": "constructor"
    },
    {
      "inputs": [
        {
          "internalType": "address",
          "name": "to",
          "type": "address"
        },
        {
          "internalType": "uint256",
          "name": "value",
          "type": "uint256"
        },
        {
          "internalType": "bytes",
          "name": "data",
          "type": "bytes"
        }
      ],
      "name": "execute",
      "outputs": [
        {
          "internalType": "bool",
          "name": "",
          "type": "bool"
        },
        {
          "internalType": "bytes",
          "name": "",
          "type": "bytes"
        }
      ],
      "stateMutability": "nonpayable",
      "type": "function"
    },
    {
      "inputs": [],
      "name": "owner",
      "outputs": [
        {
          "internalType": "address",
          "name": "",
          "type": "address"
        }
      ],
      "stateMutability": "view",
      "type": "function"
    },
    {
      "inputs": [
        {
          "internalType": "address",
          "name": "newOwner",
          "type": "address"
        }
      ],
      "name": "updateOwner",
      "outputs": [],
      "stateMutability": "nonpayable",
      "type": "function"
    }
  ],
  "bytecode": "0x608060405234801561001057600080fd5b50600080546001600160a01b0319163317815561040290819061003390396000f3fe608060405234801561001057600080fd5b50600436106100415760003560e01c8063880cdc31146100465780638da5cb5b1461005b578063b61d27f61461007b575b600080fd5b6100596100543660046102ba565b61009c565b005b6000546040516001600160a01b0390911681526020015b60405180910390f35b61008e6100893660046102dc565b610181565b604051610072929190610363565b6000546001600160a01b031633146100fb5760405162461bcd60e51b815260206004820152601f60248201527f57616c6c65743a2063616c6c6572206973206e6f7420746865206f776e65720060448201526064015b60405180910390fd5b6001600160a01b03811661015f5760405162461bcd60e51b815260206004820152602560248201527f57616c6c65743a206e6577206f776e657220697320746865207a65726f206164604482015264647265737360d81b60648201526084016100f2565b600080546001600160a01b0319166001600160a01b0392909216919091179055565b600080546060906001600160a01b031633146101df5760405162461bcd60e51b815260206004820152601f60248201527f57616c6c65743a2063616c6c6572206973206e6f7420746865206f776e65720060448201526064016100f2565b600080876001600160a01b03168787876040516101fd9291906103bc565b60006040518083038185875af1925050503d806000811461023a576040519150601f19603f3d011682016040523d82523d6000602084013e61023f565b606091505b5091509150816102915760405162461bcd60e51b815260206004820152601860248201527f57616c6c65743a20657865637574696f6e206661696c6564000000000000000060448201526064016100f2565b9097909650945050505050565b80356001600160a01b03811681146102b557600080fd5b919050565b6000602082840312156102cc57600080fd5b6102d58261029e565b9392505050565b600080600080606085870312156102f257600080fd5b6102fb8561029e565b935060208501359250604085013567ffffffffffffffff8082111561031f57600080fd5b818701915087601f83011261033357600080fd5b81358181111561034257600080fd5b88602082850101111561035457600080fd5b95989497505060200194505050565b82151581526000602060406020840152835180604085015260005b8181101561039a5785810183015185820160600152820161037e565b506000606082860101526060601f19601f830116850101925050509392505050565b818382376000910190815291905056fea2646970667358221220f8c8b7132415ccf3a4f16265f5dee01c7913bb5d073b662749226c7a1cf1b43764736f6c63430008160033",
  "linkReferences": {},
  "deployedLinkReferences": {}
}